{
  "contractName": "DonationEscrow",
  "abi": [
    {
      "inputs": [],
      "stateMutability": "nonpayable",
      "type": "constructor"
    },
    {
      "anonymous": false,
      "inputs": [
        {
          "indexed": true,
          "internalType": "uint256",
          "name": "campaignId",
          "type": "uint256"
        },
        {
          "indexed": false,
          "internalType": "string",
          "name": "title",
          "type": "string"
        },
        {
          "indexed": false,
          "internalType": "uint256",
          "name": "goal",
          "type": "uint256"
        }
      ],
      "name": "CampaignCreated",
      "type": "event"
    },
    {
      "anonymous": false,
      "inputs": [
        {
          "indexed": true,
          "internalType": "uint256",
          "name": "campaignId",
          "type": "uint256"
        },
        {
          "indexed": true,
          "internalType": "address",
          "name": "donor",
          "type": "address"
        },
        {
          "indexed": false,
          "internalType": "uint256",
          "name": "amount",
          "type": "uint256"
        },
        {
          "indexed": false,
          "internalType": "uint256",
          "name": "newBalance",
          "type": "uint256"
        }
      ],
      "name": "DonationReceived",
      "type": "event"
    },
    {
      "anonymous": false,
      "inputs": [
        {
          "indexed": true,
          "internalType": "uint256",
          "name": "campaignId",
          "type": "uint256"
        },
        {
          "indexed": false,
          "internalType": "uint256",
          "name": "amount",
          "type": "uint256"
        }
      ],
      "name": "FundsWithdrawn",
      "type": "event"
    },
    {
      "inputs": [],
      "name": "admin",
      "outputs": [
        {
          "internalType": "address",
          "name": "",
          "type": "address"
        }
      ],
      "stateMutability": "view",
      "type": "function",
      "constant": true
    },
    {
      "inputs": [],
      "name": "campaignCount",
      "outputs": [
        {
          "internalType": "uint256",
          "name": "",
          "type": "uint256"
        }
      ],
      "stateMutability": "view",
      "type": "function",
      "constant": true
    },
    {
      "inputs": [
        {
          "internalType": "uint256",
          "name": "",
          "type": "uint256"
        }
      ],
      "name": "campaigns",
      "outputs": [
        {
          "internalType": "address",
          "name": "creator",
          "type": "address"
        },
        {
          "internalType": "string",
          "name": "title",
          "type": "string"
        },
        {
          "internalType": "uint256",
          "name": "goal",
          "type": "uint256"
        },
        {
          "internalType": "uint256",
          "name": "balance",
          "type": "uint256"
        },
        {
          "internalType": "bool",
          "name": "completed",
          "type": "bool"
        }
      ],
      "stateMutability": "view",
      "type": "function",
      "constant": true
    },
    {
      "inputs": [
        {
          "internalType": "string",
          "name": "_title",
          "type": "string"
        },
        {
          "internalType": "uint256",
          "name": "_goal",
          "type": "uint256"
        }
      ],
      "name": "createCampaign",
      "outputs": [],
      "stateMutability": "nonpayable",
      "type": "function"
    },
    {
      "inputs": [
        {
          "internalType": "uint256",
          "name": "_id",
          "type": "uint256"
        }
      ],
      "name": "donateToCampaign",
      "outputs": [],
      "stateMutability": "payable",
      "type": "function",
      "payable": true
    },
    {
      "inputs": [
        {
          "internalType": "uint256",
          "name": "_id",
          "type": "uint256"
        }
      ],
      "name": "withdrawFunds",
      "outputs": [],
      "stateMutability": "nonpayable",
      "type": "function"
    },
    {
      "inputs": [
        {
          "internalType": "uint256",
          "name": "_id",
          "type": "uint256"
        }
      ],
      "name": "getCampaign",
      "outputs": [
        {
          "internalType": "address",
          "name": "creator",
          "type": "address"
        },
        {
          "internalType": "string",
          "name": "title",
          "type": "string"
        },
        {
          "internalType": "uint256",
          "name": "goal",
          "type": "uint256"
        },
        {
          "internalType": "uint256",
          "name": "balance",
          "type": "uint256"
        },
        {
          "internalType": "bool",
          "name": "completed",
          "type": "bool"
        }
      ],
      "stateMutability": "view",
      "type": "function",
      "constant": true
    },
    {
      "inputs": [
        {
          "internalType": "uint256",
          "name": "_id",
          "type": "uint256"
        }
      ],
      "name": "getDonationHistory",
      "outputs": [
        {
          "internalType": "address[]",
          "name": "",
          "type": "address[]"
        },
        {
          "internalType": "uint256[]",
          "name": "",
          "type": "uint256[]"
        }
      ],
      "stateMutability": "view",
      "type": "function",
      "constant": true
    }
  ],
  "bytecode": "0x6080604052600060015534801561001557600080fd5b50336000806101000a81548173ffffffffffffffffffffffffffffffffffffffff021916908373ffffffffffffffffffffffffffffffffffffffff16021790555061192f806100656000396000f3fe60806040526004361061007b5760003560e01c80635598f8cc1161004e5780635598f8cc146101445780637274e30d14610185578063f102a67c146101b0578063f851a440146101d95761007b565b8063141961bc14610080578063155dd5ee146100c15780632869a6e6146100ea57806342a4fda814610128575b600080fd5b34801561008c57600080fd5b506100a760048036038101906100a29190610cd2565b610204565b6040516100b8959493929190610dfa565b60405180910390f35b3480156100cd57600080fd5b506100e860048036038101906100e39190610cd2565b6102ef565b005b3480156100f657600080fd5b50610111600480360381019061010c9190610cd2565b610549565b60405161011f929190610fd0565b60405180910390f35b610142600480360381019061013d9190610cd2565b610770565b005b34801561015057600080fd5b5061016b60048036038101906101669190610cd2565b6109db565b60405161017c959493929190610dfa565b60405180910390f35b34801561019157600080fd5b5061019a610b24565b6040516101a79190611007565b60405180910390f35b3480156101bc57600080fd5b506101d760048036038101906101d29190611157565b610b2a565b005b3480156101e557600080fd5b506101ee610c64565b6040516101fb91906111b3565b60405180910390f35b60026020528060005260406000206000915090508060000160009054906101000a900473ffffffffffffffffffffffffffffffffffffffff169080600101805461024d906111fd565b80601f0160208091040260200160405190810160405280929190818152602001828054610279906111fd565b80156102c65780601f1061029b576101008083540402835291602001916102c6565b820191906000526020600020905b8154815290600101906020018083116102a957829003601f168201915b5050505050908060020154908060030154908060040160009054906101000a900460ff16905085565b60008054906101000a900473ffffffffffffffffffffffffffffffffffffffff1673ffffffffffffffffffffffffffffffffffffffff163373ffffffffffffffffffffffffffffffffffffffff161461037d576040517f08c379a0000000000000000000000000000000000000000000000000000000008152600401610374906112a0565b60405180910390fd5b60015481106103c1576040517f08c379a00000000000000000000000000000000000000000000000000000000081526004016103b89061130c565b60405180910390fd5b60006002600083815260200190815260200160002090508060040160009054906101000a900460ff161561042a576040517f08c379a000000000000000000000000000000000000000000000000000000000815260040161042190611378565b60405180910390fd5b806002015481600301541015610475576040517f08c379a000000000000000000000000000000000000000000000000000000000815260040161046c906113e4565b60405180910390fd5b60008160030154905060018260040160006101000a81548160ff0219169083151502179055506000826003018190555060008054906101000a900473ffffffffffffffffffffffffffffffffffffffff1673ffffffffffffffffffffffffffffffffffffffff166108fc829081150290604051600060405180830381858888f1935050505015801561050b573d6000803e3d6000fd5b50827fd66662c0ded9e58fd31d5e44944bcfd07ffc15e6927ecc1382e7941cb7bd24c48260405161053c9190611007565b60405180910390a2505050565b6060806001548310610590576040517f08c379a00000000000000000000000000000000000000000000000000000000081526004016105879061130c565b60405180910390fd5b600060026000858152602001908152602001600020905060008160060180549050905060008167ffffffffffffffff8111156105cf576105ce61102c565b5b6040519080825280602002602001820160405280156105fd5781602001602082028036833780820191505090505b50905060008267ffffffffffffffff81111561061c5761061b61102c565b5b60405190808252806020026020018201604052801561064a5781602001602082028036833780820191505090505b50905060005b838110156107605760008560060182815481106106705761066f611404565b5b9060005260206000200160009054906101000a900473ffffffffffffffffffffffffffffffffffffffff169050808483815181106106b1576106b0611404565b5b602002602001019073ffffffffffffffffffffffffffffffffffffffff16908173ffffffffffffffffffffffffffffffffffffffff16815250508560050160008273ffffffffffffffffffffffffffffffffffffffff1673ffffffffffffffffffffffffffffffffffffffff168152602001908152602001600020548383815181106107405761073f611404565b5b60200260200101818152505050808061075890611462565b915050610650565b5081819550955050505050915091565b60015481106107b4576040517f08c379a00000000000000000000000000000000000000000000000000000000081526004016107ab9061130c565b60405180910390fd5b60006002600083815260200190815260200160002090508060040160009054906101000a900460ff161561081d576040517f08c379a0000000000000000000000000000000000000000000000000000000008152600401610814906114f6565b60405180910390fd5b60003411610860576040517f08c379a000000000000000000000000000000000000000000000000000000000815260040161085790611562565b60405180910390fd5b348160030160008282546108749190611582565b9250508190555060008160050160003373ffffffffffffffffffffffffffffffffffffffff1673ffffffffffffffffffffffffffffffffffffffff168152602001908152602001600020540361092a5780600601339080600181540180825580915050600190039060005260206000200160009091909190916101000a81548173ffffffffffffffffffffffffffffffffffffffff021916908373ffffffffffffffffffffffffffffffffffffffff1602179055505b348160050160003373ffffffffffffffffffffffffffffffffffffffff1673ffffffffffffffffffffffffffffffffffffffff168152602001908152602001600020600082825461097b9190611582565b925050819055503373ffffffffffffffffffffffffffffffffffffffff16827f3dbea1b4ce5f95137fdcac9b1d685825c3d70ace830df1ca5a181d3887add4103484600301546040516109cf9291906115b6565b60405180910390a35050565b6000606060008060006001548610610a28576040517f08c379a0000000000000000000000000000000000000000000000000000000008152600401610a1f9061130c565b60405180910390fd5b60006002600088815260200190815260200160002090508060000160009054906101000a900473ffffffffffffffffffffffffffffffffffffffff1681600101826002015483600301548460040160009054906101000a900460ff16838054610a90906111fd565b80601f0160208091040260200160405190810160405280929190818152602001828054610abc906111fd565b8015610b095780601f10610ade57610100808354040283529160200191610b09565b820191906000526020600020905b815481529060010190602001808311610aec57829003601f168201915b50505050509350955095509550955095505091939590929450565b60015481565b60008111610b6d576040517f08c379a0000000000000000000000000000000000000000000000000000000008152600401610b649061162b565b60405180910390fd5b60006002600060015481526020019081526020016000209050338160000160006101000a81548173ffffffffffffffffffffffffffffffffffffffff021916908373ffffffffffffffffffffffffffffffffffffffff16021790555082816001019081610bda91906117f7565b508181600201819055506000816003018190555060008160040160006101000a81548160ff0219169083151502179055506001547f2170fee8e65b01596ec56f4b4df98e903e2baf55bb74a163480d31de5ce830258484604051610c3f9291906118c9565b60405180910390a260016000815480929190610c5a90611462565b9190505550505050565b60008054906101000a900473ffffffffffffffffffffffffffffffffffffffff1681565b6000604051905090565b600080fd5b600080fd5b6000819050919050565b610caf81610c9c565b8114610cba57600080fd5b50565b600081359050610ccc81610ca6565b92915050565b600060208284031215610ce857610ce7610c92565b5b6000610cf684828501610cbd565b91505092915050565b600073ffffffffffffffffffffffffffffffffffffffff82169050919050565b6000610d2a82610cff565b9050919050565b610d3a81610d1f565b82525050565b600081519050919050565b600082825260208201905092915050565b60005b83811015610d7a578082015181840152602081019050610d5f565b60008484015250505050565b6000601f19601f8301169050919050565b6000610da282610d40565b610dac8185610d4b565b9350610dbc818560208601610d5c565b610dc581610d86565b840191505092915050565b610dd981610c9c565b82525050565b60008115159050919050565b610df481610ddf565b82525050565b600060a082019050610e0f6000830188610d31565b8181036020830152610e218187610d97565b9050610e306040830186610dd0565b610e3d6060830185610dd0565b610e4a6080830184610deb565b9695505050505050565b600081519050919050565b600082825260208201905092915050565b6000819050602082019050919050565b610e8981610d1f565b82525050565b6000610e9b8383610e80565b60208301905092915050565b6000602082019050919050565b6000610ebf82610e54565b610ec98185610e5f565b9350610ed483610e70565b8060005b83811015610f05578151610eec8882610e8f565b9750610ef783610ea7565b925050600181019050610ed8565b5085935050505092915050565b600081519050919050565b600082825260208201905092915050565b6000819050602082019050919050565b610f4781610c9c565b82525050565b6000610f598383610f3e565b60208301905092915050565b6000602082019050919050565b6000610f7d82610f12565b610f878185610f1d565b9350610f9283610f2e565b8060005b83811015610fc3578151610faa8882610f4d565b9750610fb583610f65565b925050600181019050610f96565b5085935050505092915050565b60006040820190508181036000830152610fea8185610eb4565b90508181036020830152610ffe8184610f72565b90509392505050565b600060208201905061101c6000830184610dd0565b92915050565b600080fd5b600080fd5b7f4e487b7100000000000000000000000000000000000000000000000000000000600052604160045260246000fd5b61106482610d86565b810181811067ffffffffffffffff821117156110835761108261102c565b5b80604052505050565b6000611096610c88565b90506110a2828261105b565b919050565b600067ffffffffffffffff8211156110c2576110c161102c565b5b6110cb82610d86565b9050602081019050919050565b82818337600083830152505050565b60006110fa6110f5846110a7565b61108c565b90508281526020810184848401111561111657611115611027565b5b6111218482856110d8565b509392505050565b600082601f83011261113e5761113d611022565b5b813561114e8482602086016110e7565b91505092915050565b6000806040838503121561116e5761116d610c92565b5b600083013567ffffffffffffffff81111561118c5761118b610c97565b5b61119885828601611129565b92505060206111a985828601610cbd565b9150509250929050565b60006020820190506111c86000830184610d31565b92915050565b7f4e487b7100000000000000000000000000000000000000000000000000000000600052602260045260246000fd5b6000600282049050600182168061121557607f821691505b602082108103611228576112276111ce565b5b50919050565b7f4f6e6c792061646d696e2063616e20706572666f726d2074686973206163746960008201527f6f6e000000000000000000000000000000000000000000000000000000000000602082015250565b600061128a602283610d4b565b91506112958261122e565b604082019050919050565b600060208201905081810360008301526112b98161127d565b9050919050565b7f496e76616c69642063616d706169676e20494400000000000000000000000000600082015250565b60006112f6601383610d4b565b9150611301826112c0565b602082019050919050565b60006020820190508181036000830152611325816112e9565b9050919050565b7f416c72656164792077697468647261776e000000000000000000000000000000600082015250565b6000611362601183610d4b565b915061136d8261132c565b602082019050919050565b6000602082019050818103600083015261139181611355565b9050919050565b7f476f616c206e6f74207965742072656163686564000000000000000000000000600082015250565b60006113ce601483610d4b565b91506113d982611398565b602082019050919050565b600060208201905081810360008301526113fd816113c1565b9050919050565b7f4e487b7100000000000000000000000000000000000000000000000000000000600052603260045260246000fd5b7f4e487b7100000000000000000000000000000000000000000000000000000000600052601160045260246000fd5b600061146d82610c9c565b91507fffffffffffffffffffffffffffffffffffffffffffffffffffffffffffffffff820361149f5761149e611433565b5b600182019050919050565b7f43616d706169676e20616c726561647920636f6d706c65746564000000000000600082015250565b60006114e0601a83610d4b565b91506114eb826114aa565b602082019050919050565b6000602082019050818103600083015261150f816114d3565b9050919050565b7f446f6e6174696f6e206d757374206265206d6f7265207468616e203000000000600082015250565b600061154c601c83610d4b565b915061155782611516565b602082019050919050565b6000602082019050818103600083015261157b8161153f565b9050919050565b600061158d82610c9c565b915061159883610c9c565b92508282019050808211156115b0576115af611433565b5b92915050565b60006040820190506115cb6000830185610dd0565b6115d86020830184610dd0565b9392505050565b7f476f616c206d757374206265206d6f7265207468616e20300000000000000000600082015250565b6000611615601883610d4b565b9150611620826115df565b602082019050919050565b6000602082019050818103600083015261164481611608565b9050919050565b60008190508160005260206000209050919050565b60006020601f8301049050919050565b600082821b905092915050565b6000600883026116ad7fffffffffffffffffffffffffffffffffffffffffffffffffffffffffffffffff82611670565b6116b78683611670565b95508019841693508086168417925050509392505050565b6000819050919050565b60006116f46116ef6116ea84610c9c565b6116cf565b610c9c565b9050919050565b6000819050919050565b61170e836116d9565b61172261171a826116fb565b84845461167d565b825550505050565b600090565b61173761172a565b611742818484611705565b505050565b5b818110156117665761175b60008261172f565b600181019050611748565b5050565b601f8211156117ab5761177c8161164b565b61178584611660565b81016020851015611794578190505b6117a86117a085611660565b830182611747565b50505b505050565b600082821c905092915050565b60006117ce600019846008026117b0565b1980831691505092915050565b60006117e783836117bd565b9150826002028217905092915050565b61180082610d40565b67ffffffffffffffff8111156118195761181861102c565b5b61182382546111fd565b61182e82828561176a565b600060209050601f831160018114611861576000841561184f578287015190505b61185985826117db565b8655506118c1565b601f19841661186f8661164b565b60005b8281101561189757848901518255600182019150602085019450602081019050611872565b868310156118b457848901516118b0601f8916826117bd565b8355505b6001600288020188555050505b505050505050565b600060408201905081810360008301526118e38185610d97565b90506118f26020830184610dd0565b939250505056fea26469706673582212200b2b9c30f7ed105efa652aa5751831d46009b3db8957a959837643ac2514d37864736f6c63430008130033",
  "immutableReferences": {},
  "source": "// SPDX-License-Identifier: MIT\npragma solidity ^0.8.0;\n\n/**\n * @title DonationEscrow\n * @dev A smart contract to manage donation campaigns. An admin creates campaigns,\n * users can donate, and the admin can withdraw funds once the goal is met.\n */\ncontract DonationEscrow {\n    address public admin;\n    uint public campaignCount = 0;\n\n    struct Campaign {\n        address creator;        // The address of the admin who created the campaign\n        string title;           // The title of the campaign\n        uint goal;              // The funding goal in wei\n        uint balance;           // The current amount raised in wei\n        bool completed;         // Flag to mark if the funds have been withdrawn\n        mapping(address => uint) donors; // Maps donor addresses to their total donation amount\n        address[] donorAddresses;     // Array to keep track of unique donor addresses\n    }\n\n    mapping(uint => Campaign) public campaigns;\n\n    // --- Events ---\n    event CampaignCreated(uint indexed campaignId, string title, uint goal);\n    event DonationReceived(uint indexed campaignId, address indexed donor, uint amount, uint newBalance);\n    event FundsWithdrawn(uint indexed campaignId, uint amount);\n\n    /**\n     * @dev Sets the contract deployer as the admin.\n     */\n    constructor() {\n        admin = msg.sender;\n    }\n\n    /**\n     * @dev Modifier to restrict function access to the admin only.\n     */\n    modifier onlyAdmin() {\n        require(msg.sender == admin, \"Only admin can perform this action\");\n        _;\n    }\n\n    /**\n     * @dev Allows the admin to create a new donation campaign.\n     * @param _title The title for the new campaign.\n     * @param _goal The funding goal in wei for the new campaign.\n     */\n    function createCampaign(string memory _title, uint _goal) public {\n        require(_goal > 0, \"Goal must be more than 0\");\n\n        // Use a storage pointer to initialize the new campaign directly in storage\n        Campaign storage newCampaign = campaigns[campaignCount];\n        newCampaign.creator = msg.sender;\n        newCampaign.title = _title;\n        newCampaign.goal = _goal;\n        // Balance is 0 and completed is false by default, but explicit for clarity\n        newCampaign.balance = 0;\n        newCampaign.completed = false;\n\n        emit CampaignCreated(campaignCount, _title, _goal);\n        campaignCount++;\n    }\n\n    /**\n     * @dev Allows any user to donate to a specific campaign.\n     * @param _id The ID of the campaign to donate to.\n     */\n    function donateToCampaign(uint _id) public payable {\n        require(_id < campaignCount, \"Invalid campaign ID\");\n        Campaign storage campaign = campaigns[_id];\n        require(!campaign.completed, \"Campaign already completed\");\n        require(msg.value > 0, \"Donation must be more than 0\");\n\n        // Update the campaign balance\n        campaign.balance += msg.value;\n\n        // If this is the first donation from this address, add them to the list of donors\n        if (campaign.donors[msg.sender] == 0) {\n            campaign.donorAddresses.push(msg.sender);\n        }\n\n        // Record the donor's contribution\n        campaign.donors[msg.sender] += msg.value;\n\n        emit DonationReceived(_id, msg.sender, msg.value, campaign.balance);\n    }\n\n    /**\n     * @dev Allows the admin to withdraw the collected funds after the goal is reached.\n     * @param _id The ID of the campaign to withdraw from.\n     */\n    function withdrawFunds(uint _id) public onlyAdmin {\n        require(_id < campaignCount, \"Invalid campaign ID\");\n        Campaign storage campaign = campaigns[_id];\n        require(!campaign.completed, \"Already withdrawn\");\n        require(campaign.balance >= campaign.goal, \"Goal not yet reached\");\n\n        uint amount = campaign.balance;\n        campaign.completed = true;\n        campaign.balance = 0;\n\n        // Transfer funds to the admin\n        payable(admin).transfer(amount);\n        emit FundsWithdrawn(_id, amount);\n    }\n\n    // --- View Functions ---\n\n    /**\n     * @dev Retrieves core details of a specific campaign.\n     * @param _id The ID of the campaign.\n     * @return creator The address of the campaign creator.\n     * @return title The title of the campaign.\n     * @return goal The funding goal of the campaign.\n     * @return balance The current balance of the campaign.\n     * @return completed Whether the campaign funds have been withdrawn.\n     */\n    function getCampaign(uint _id) public view returns (\n        address creator,\n        string memory title,\n        uint goal,\n        uint balance,\n        bool completed\n    ) {\n        require(_id < campaignCount, \"Invalid campaign ID\");\n        // Use a storage pointer to reference the campaign data directly.\n        // This avoids the error of trying to copy a struct with a mapping to memory.\n        Campaign storage c = campaigns[_id];\n        return (c.creator, c.title, c.goal, c.balance, c.completed);\n    }\n\n    /**\n     * @dev Retrieves the full donation history for a campaign.\n     * @param _id The ID of the campaign.\n     * @return A list of all donor addresses.\n     * @return A list of corresponding donation amounts.\n     */\n    function getDonationHistory(uint _id) public view returns (address[] memory, uint[] memory) {\n        require(_id < campaignCount, \"Invalid campaign ID\");\n        Campaign storage campaign = campaigns[_id];\n\n        uint donorCount = campaign.donorAddresses.length;\n        address[] memory donorsList = new address[](donorCount);\n        uint[] memory amounts = new uint[](donorCount);\n\n        for (uint i = 0; i < donorCount; i++) {\n            address donor = campaign.donorAddresses[i];\n            donorsList[i] = donor;\n            amounts[i] = campaign.donors[donor];\n        }\n\n        return (donorsList, amounts);\n    }\n}",
  "sourcePath": "C:\\Tugas akhir\\blockchain\\contracts\\DonationEscrow.sol",
  "compiler": {
    "name": "solc",
    "version": "0.8.19+commit.7dd6d404.Emscripten.clang"
  },
  "schemaVersion": "3.4.16",
  "updatedAt": "2025-07-11T14:27:23.999Z",
  "networkType": "ethereum",
  "devdoc": {
    "details": "A smart contract to manage donation campaigns. An admin creates campaigns, users can donate, and the admin can withdraw funds once the goal is met.",
    "kind": "dev",
    "methods": {
      "constructor": {
        "details": "Sets the contract deployer as the admin."
      },
      "createCampaign(string,uint256)": {
        "details": "Allows the admin to create a new donation campaign.",
        "params": {
          "_goal": "The funding goal in wei for the new campaign.",
          "_title": "The title for the new campaign."
        }
      },
      "donateToCampaign(uint256)": {
        "details": "Allows any user to donate to a specific campaign.",
        "params": {
          "_id": "The ID of the campaign to donate to."
        }
      },
      "getCampaign(uint256)": {
        "details": "Retrieves core details of a specific campaign.",
        "params": {
          "_id": "The ID of the campaign."
        },
        "returns": {
          "balance": "The current balance of the campaign.",
          "completed": "Whether the campaign funds have been withdrawn.",
          "creator": "The address of the campaign creator.",
          "goal": "The funding goal of the campaign.",
          "title": "The title of the campaign."
        }
      },
      "getDonationHistory(uint256)": {
        "details": "Retrieves the full donation history for a campaign.",
        "params": {
          "_id": "The ID of the campaign."
        },
        "returns": {
          "_0": "A list of all donor addresses.",
          "_1": "A list of corresponding donation amounts."
        }
      },
      "withdrawFunds(uint256)": {
        "details": "Allows the admin to withdraw the collected funds after the goal is reached.",
        "params": {
          "_id": "The ID of the campaign to withdraw from."
        }
      }
    },
    "title": "DonationEscrow",
    "version": 1
  },
  "userdoc": {
    "kind": "user",
    "methods": {},
    "version": 1
  }
}